:020000040800F2
:1000000000000220C18E00089B2A0008A12A0008D7
:10001000A72A0008AD2A0008B32A00080000000043
:10002000000000000000000000000000B92A0008E5
:10003000C72A000800000000D52A0008E52A0008A9
:10004000118F0008118F0008118F0008118F000810
:10005000118F0008118F0008118F0008118F000800
:10006000118F0008118F0008118F0008118F0008F0
:10007000118F0008118F0008118F0008118F0008E0
:10008000118F0008118F0008118F00080000000078
:10009000000000000000000000000000118F0008B8
:1000A000118F0008118F0008118F0008118F0008B0
:1000B000118F0008118F0008118F0008812B000894
:1000C000952B0008118F0008118F0008118F000870
:1000D000118F0008A92B0008BD2B000800000000AC
:1000E000118F0008118F0008118F00080000000018
:1000F000000000000000000000000000118F000858
:1001000000000000118F0008118F0008118F0008F7
:1001100000000000000000000000000000000000DF
:10012000118F0008118F0008118F0008118F00082F
:10013000118F000800000000000000000000000017
:10014000000000000000000000000000118F000807
:10015000118F0008118F0008118F0008118F0008FF
:10016000118F0008118F000800000000000000003F
:10017000000000000000000000000000000000007F
:1001800000000000118F00080000000000000000C7
:08019000118F0008118F000817
:1001A0000348044B834202D0034B03B11847704706
:1001B0000001002000010020000000000548064961
:1001C0000B1AD90F01EBA301491002D0034B03B165
:1001D00018477047000100200001002000000000C7
:1001E00010B5064C237843B9FFF7DAFF044B13B17F
:1001F0000448AFF300800123237010BD00010020EC
:10020000000000009490000808B5044B1BB104499D
:100210000448AFF30080BDE80840CFE700000000CD
:10022000040100209490000870B50D4E0D4D761B12
:10023000B61006D0002455F8043B01349847A64276
:10024000F9D1094E094D761B08F024FFB61006D0EF
:10025000002455F8043B01349847A642F9D170BDFB
:1002600068910008689100086C9100086891000886
:10027000830730B548D0541E002A3FD0CAB2034687
:1002800001E0013C3AD303F8012B9D07F9D1032C7F
:100290002DD9CDB245EA05250F2C45EA054536D9BD
:1002A000A4F1100222F00F0C03F1200EE6444FEAF5
:1002B000121C03F1100242E9045542E902551032C2
:1002C0007245F8D10CF1010214F00C0F03EB02128D
:1002D00004F00F0C13D0ACF1040323F00303043338
:1002E000134442F8045B9342FBD10CF003042CB19D
:1002F000CAB21C4403F8012B9C42FBD130BD6446BA
:100300001346002CF4D1F9E703461446BFE71A461A
:10031000A446E0E770B54FF0FF0C4CF4E06C1CEA2B
:1003200011541DBF1CEA135594EA0C0F95EA0C0FEB
:1003300000F0DEF82C4481EA030621EA4C5123EA5E
:100340004C5350EA013518BF52EA033541F480118D
:1003500043F4801338D0A0FB02CE4FF00005E1FB40
:1003600002E506F00042E0FB03E54FF00006E1FB8A
:1003700003569CF0000F18BF4EF0010EA4F1FF04CD
:10038000B6F5007F64F5407404D25FEA4E0E6D410D
:1003900046EB060642EAC62141EA55514FEAC5201E
:1003A00040EA5E504FEACE2EB4F1FD0C88BFBCF59A
:1003B000E06F1ED8BEF1004F08BF5FEA500E50F14B
:1003C000000041EB045170BD06F0004646EA010111
:1003D00040EA020081EA0301B4EB5C04C2BFD4EB43
:1003E0000C0541EA045170BD41F480114FF0000E3C
:1003F000013C00F3AB8014F1360FDEBF002001F0AA
:10040000004170BDC4F10004203C35DA0C341BDC23
:1004100004F11404C4F1200500FA05F320FA04F0F5
:1004200001FA05F240EA020001F0004221F0004129
:1004300010EBD37021FA04F642EB06015EEA430E9C
:1004400008BF20EAD37070BDC4F10C04C4F12005CC
:1004500000FA04F320FA05F001FA04F240EA02007F
:1004600001F0004110EBD37041F100015EEA430E50
:1004700008BF20EAD37070BDC4F1200500FA05F270
:100480004EEA020E20FA04F301FA05F243EA0203EF
:1004900021FA04F001F0004121FA04F220EA0200FE
:1004A00000EBD3705EEA430E08BF20EAD37070BD44
:1004B00094F0000F0FD101F00046400041EB010124
:1004C00011F4801F08BF013CF7D041EA060195F006
:1004D000000F18BF704703F00046520043EB0303C0
:1004E00013F4801F08BF013DF7D043EA06037047AD
:1004F00094EA0C0F0CEA135518BF95EA0C0F0CD0B8
:1005000050EA410618BF52EA4306D1D181EA0301FD
:1005100001F000414FF0000070BD50EA410606BFF7
:100520001046194652EA430619D094EA0C0F02D13C
:1005300050EA013613D195EA0C0F05D152EA033681
:100540001CBF104619460AD181EA030101F000419F
:1005500041F0FE4141F470014FF0000070BD41F0E8
:10056000FE4141F4780170BD81F0004102E000BF1E
:1005700083F0004330B54FEA41044FEA430594EA63
:10058000050F08BF90EA020F1FBF54EA000C55EA9E
:10059000020C7FEA645C7FEA655C00F0E2804FEA6F
:1005A0005454D4EB5555B8BF6D420CDD2C4480EA51
:1005B000020281EA030382EA000083EA010180EA81
:1005C000020281EA0303362D88BF30BD11F0004FCF
:1005D0004FEA01314FF4801C4CEA113102D0404205
:1005E00061EB410113F0004F4FEA03334CEA133340
:1005F00002D0524263EB430394EA050F00F0A78058
:10060000A4F10104D5F1200E0DDB02FA0EFC22FA52
:1006100005F2801841F1000103FA0EF2801843FA46
:1006200005F359410EE0A5F120050EF1200E012A37
:1006300003FA0EFC28BF4CF0020C43FA05F3C01875
:1006400051EBE37101F0004507D54FF0000EDCF1EE
:10065000000C7EEB00006EEB0101B1F5801F1BD397
:10066000B1F5001F0CD349085FEA30004FEA3C0C9B
:1006700004F101044FEA445212F5800F80F09A8091
:10068000BCF1004F08BF5FEA500C50F1000041EB95
:10069000045141EA050130BD5FEA4C0C404141EB99
:1006A0000101013C28BFB1F5801FE9D291F0000F94
:1006B00004BF01460020B1FA81F308BF2033A3F143
:1006C0000B03B3F120020CDA0C3208DD02F1140C3A
:1006D000C2F10C0201FA0CF021FA02F10CE002F175
:1006E0001402D8BFC2F1200C01FA02F120FA0CFC6E
:1006F000DCBF41EA0C019040E41AA2BF01EB0451B7
:10070000294330BD6FEA04041F3C1CDA0C340EDCB4
:1007100004F11404C4F1200220FA04F001FA02F3F7
:1007200040EA030021FA04F345EA030130BDC4F1B5
:100730000C04C4F1200220FA02F001FA04F340EAAA
:100740000300294630BD21FA04F0294630BD94F05B
:10075000000F83F4801306BF81F480110134013D42
:100760004EE77FEA645C18BF7FEA655C29D094EAB3
:10077000050F08BF90EA020F05D054EA000C04BF31
:100780001946104630BD91EA030F1EBF002100201C
:1007900030BD5FEA545C05D14000494128BF41F0BB
:1007A000004130BD14F580043CBF01F5801130BD1F
:1007B00001F0004545F0FE4141F470014FF00000AA
:1007C00030BD7FEA645C1ABF194610467FEA655C5B
:1007D0001CBF0B46024650EA013406BF52EA0335FD
:1007E00091EA030F41F4002130BD00BF90F0000FEB
:1007F00004BF0021704730B54FF4806404F1320427
:100800004FF000054FF0000150E700BF90F0000FDF
:1008100004BF0021704730B54FF4806404F1320406
:1008200010F0004548BF40424FF000013EE700BFD6
:1008300042004FEAE2014FEA31014FEA02701FBF66
:1008400012F07F4393F07F4F81F06051704732F098
:100850007F4208BF704793F07F4F04BF41F40021EF
:10086000704730B54FF4607401F0004521F000414D
:100870001CE700BF50EA010208BF704730B54FF0D7
:1008800000050AE050EA010208BF704730B511F0D8
:10089000004502D5404261EB41014FF4806404F110
:1008A00032045FEA915C3FF4D8AE4FF003025FEA96
:1008B000DC0C18BF03325FEADC0C18BF033202EB1A
:1008C000DC02C2F1200300FA03FC20FA02F001FA74
:1008D00003FE40EA0E0021FA02F11444BDE600BF17
:1008E0004FEA4102B2F1E04324BFB3F5001CDCF152
:1008F000FE5C0DD901F0004C4FEAC0024CEA50708A
:10090000B2F1004F40EB830008BF20F001007047B8
:1009100011F0804F21D113F13872BCBF01F00040BB
:10092000704741F480114FEA5252C2F11802C2F1ED
:10093000200C10FA0CF320FA02F018BF40F001006E
:100940004FEAC1234FEAD32303FA0CFC40EA0C0020
:1009500023FA02F34FEA4303CCE77FEA625307D15D
:1009600050EA01331EBF4FF0FE4040F44000704794
:1009700001F0004040F0FE4040F40000704700BF2E
:1009800053B94AB9002908BF00281CBF4FF0FF31F6
:100990004FF0FF3000F074B9ADF1080C6DE904CEF2
:1009A00000F006F8DDF804E0DDE9022304B070474A
:1009B0002DE9F047089D04468E46002B4DD18A4212
:1009C000944669D9B2FA82F252B101FA02F3C2F145
:1009D000200120FA01F10CFA02FC41EA030E9440D6
:1009E0004FEA1C48210CBEFBF8F61FFA8CF708FBF7
:1009F00016E341EA034306FB07F199420AD91CEBCF
:100A0000030306F1FF3080F01F81994240F21C8100
:100A1000023E63445B1AA4B2B3FBF8F008FB103348
:100A200044EA034400FB07F7A7420AD91CEB04047D
:100A300000F1FF3380F00A81A74240F2078164444D
:100A4000023840EA0640E41B00261DB1D4400023D2
:100A5000C5E900433146BDE8F0878B4209D9002D36
:100A600000F0EF800026C5E9000130463146BDE8C0
:100A7000F087B3FA83F6002E4AD18B4202D382422A
:100A800000F2F980841A61EB030301209E46002DD9
:100A9000E0D0C5E9004EDDE702B9FFDEB2FA82F22E
:100AA000002A40F09280A1EB0C014FEA1C471FFA8C
:100AB0008CFE0126200CB1FBF7F307FB131140EA73
:100AC00001410EFB03F0884208D91CEB010103F140
:100AD000FF3802D2884200F2CB804346091AA4B202
:100AE000B1FBF7F007FB101144EA01440EFB00FED6
:100AF000A64508D91CEB040400F1FF3102D2A6453B
:100B000000F2BB800846A4EB0E0440EA03409CE7D9
:100B1000C6F12007B34022FA07FC4CEA030C20FA86
:100B200007F401FA06F31C43F9404FEA1C4900FAA6
:100B300006F3B1FBF9F8200C1FFA8CFE09FB181123
:100B400040EA014108FB0EF0884202FA06F20BD996
:100B50001CEB010108F1FF3A80F08880884240F2E6
:100B60008580A8F102086144091AA4B2B1FBF9F02A
:100B700009FB101144EA014100FB0EFE8E4508D925
:100B80001CEB010100F1FF346CD28E456AD90238AA
:100B9000614440EA0840A0FB0294A1EB0E01A1428F
:100BA000C846A64656D353D05DB1B3EB080261EBFD
:100BB0000E0101FA07F722FA06F3F1401F43C5E9D7
:100BC000007100263146BDE8F087C2F12003D8400D
:100BD0000CFA02FC21FA03F3914001434FEA1C474F
:100BE0001FFA8CFEB3FBF7F007FB10360B0C43EA41
:100BF000064300FB0EF69E4204FA02F408D91CEBF1
:100C0000030300F1FF382FD29E422DD902386344EE
:100C10009B1B89B2B3FBF7F607FB163341EA03418E
:100C200006FB0EF38B4208D91CEB010106F1FF38DD
:100C300016D28B4214D9023E6144C91A46EA0046D4
:100C400038E72E46284605E70646E3E61846F8E666
:100C50004B45A9D2B9EB020864EB0C0E0138A3E7AF
:100C60004646EAE7204694E74046D1E7D0467BE790
:100C7000023B614432E7304609E76444023842E708
:100C8000704700BF014B1868704700BF000000208C
:100C90000CB410B59CB01EAB6FF00044CDE9061447
:100CA0000291084953F8042B059102A90193049479
:100CB00000F008F9029B00221A701CB0BDE8104039
:100CC00002B070470802FFFF0EB410B59DB06FF080
:100CD00000411FABCDE906010491094953F8042BEB
:100CE0000290084C0868019302A9059400F0EAF804
:100CF000029B00221A701DB0BDE8104003B070477F
:100D0000000000200802FFFF2DE9F0478F689F4296
:100D10000C461D46164638D88246888910F4906FD6
:100D20000ED108683D462A46314600F0C3FCA26851
:100D30002368D21B2B44A26023600020BDE8F0870B
:100D40004B69096903EB4308236808EBD878A3EBE8
:100D500001096B1C4FEA68084B444345424684BF77
:100D600098464246430513D51146504600F080FD93
:100D7000074608B321694A4600F002FCA38923F420
:100D8000906343F08003A38107E008681F46CAE729
:100D9000504600F0C7FD074650B107EB0900A8EB2D
:100DA00009032761C4F81480A36020602F46BAE7C6
:100DB0002169504600F0FAFC0C23CAF80030A389E0
:100DC00043F040034FF0FF30A381B7E72DE9F04F28
:100DD000936883B09146002B6ED017688D6880466B
:100DE0000C460868083744E0A38913F4906F2ED0AE
:100DF000D4E90415A0EB010A05EB450505EBD57513
:100E00000AEB06006D100130A8422A4684BF054651
:100E10002A465B0537D51146404600F029FD0028DB
:100E20003BD052462169019000F0AAFBA289019BA8
:100E300022F4906242F08002A281A5EB0A0203EB49
:100E40000A006561A260236120603546B2465946BA
:100E5000524600F02FFCA068D9F808102368451B03
:100E60008E1B03EB0A00A5602060C9F808601EB362
:100E7000083757E902B6002EFAD0B542AA46B3D9D0
:100E80003546B246E3E7404600F04CFD03460028F5
:100E9000D3D12169404600F089FC0C23C8F800300A
:100EA000A389002243F040034FF0FF30A381C9E93A
:100EB000012203B0BDE8F08F0020C9F8040003B0A0
:100EC000BDE8F08F2DE9F04F92468A8915069DB056
:100ED000884681461C4603D50A69002A00F0EF8047
:100EE000002209929AF800307E4D039420228DF85A
:100EF000292030228DF82A200126002B72D054465A
:100F000003E014F8013F002B76D0252BF9D1B4EB88
:100F10000A0B74D12278002A64D000234FF0FF32EC
:100F2000CDE90523049307938DF853301A930134C8
:100F300004E0049A06FA03F313430493A24605223D
:100F400014F8011B284600F0CBFA431B0028F0D10F
:100F5000049BD80644BF20228DF8532019079AF825
:100F6000001044BF2B228DF853202A2954D1039A14
:100F700011680432002903927CDB07919AF8011072
:100F80000AF1010A2E2959D0574C0322204600F0BD
:100F9000A7FA40B1049B001B402404FA00F003436D
:100FA00004930AF1010A1AF8011B50488DF8281021
:100FB000062200F095FA002862D04D4B002B52D04B
:100FC00003AA00924B4B424604A94846AFF3008067
:100FD00007467A1C06D0099B3B4409939AF80030D7
:100FE000002B8CD1B8F80C305B0654BF09984FF039
:100FF000FF301DB0BDE8F08FB4EB0A0BF2D05B46BA
:10100000524641464846FFF77FFE0130EAD0099B31
:1010100022785B4409937EE7A1F13002092AB1D816
:10102000079B1AF8011F03EB830302EB4303A1F1B3
:101030003002092AF5D92E290793A5D19AF8011073
:101040002A2927D1039B9AF802101A6805920433C3
:10105000002A0AF102000393B8BF4FF0FF33824623
:10106000B8BF059390E7039B073323F007030833CA
:101070000393B0E7494243F00203079104937DE7ED
:1010800003AA00921B4B424604A9484600F0CAF846
:1010900007469EE7A1F130020023092A05930AF1D1
:1010A000010A3FF671AF1AF8011F03EB830302EB4D
:1010B0004303A1F13002092AF5D9059364E74021E1
:1010C00000F0D6FBC8F80000C8F8100018B14022A4
:1010D000C8F8142004E70C23C9F800304FF0FF30A3
:1010E00087E700BF249100082C9100083091000888
:1010F00000000000090D00082DE9F84F92461F4638
:101100000A698B68DDF828909A42B8BF1A46CAF877
:10111000002091F843300C46064613B10132CAF85C
:101120000020226891065DD5DAF800300233CAF853
:101130000030226812F0060F11461ED1E168CB1A6A
:10114000002BD8BF114618DD04F1190B4FF0000831
:1011500005E0E568DAF80030ED1A45450CDD0123BD
:101160005A4639463046C847013008F10108F0D1E7
:101170004FF0FF30BDE8F88F216894F84330003B12
:1011800018BF01238A060AD5E1185A1C302081F8BD
:101190004300224494F8451082F84310023304F1CE
:1011A000430239463046C8470130E1D0236803F096
:1011B0000603042B1DD0A3682269934225DD4FF05E
:1011C00000089B1A98441A34002501E045451CDAB2
:1011D0000123224639463046C847013005F1010552
:1011E000F4D1C5E712F0060F12D0003B18BF01235F
:1011F000D5E7DAF80030E1682269C91AA36893429A
:1012000021EAE178DDDC0029DDDC0020BDE8F88F93
:10121000E168DAF80030CB1A002BD8BF114693DC16
:10122000ABE700BF2DE9F0470C4684B09046227E24
:101230000C990746994604F14300002A33D0A2F1E5
:101240005803DDB2202D67D8202B65D8DFE813F0D6
:10125000DE006400640064006400640064006400F4
:10126000640064006400A3006E0064006400640015
:1012700064006E00640064006400640021007F006C
:10128000C00064006400AE0064007F00640064007D
:10129000E50023681A0640F104810B6862691D1D90
:1012A0000D601B681A60002382462361CDF8009010
:1012B000434603AA21463846FFF71EFF013020D0DF
:1012C0002369524641463846C847013019D0236841
:1012D000E068039E9B0719D5831B002B16DD04F1E4
:1012E000190A002504E0E068039E831BAB420DDD74
:1012F0000123524641463846C847013005F10105F1
:10130000F1D14FF0FF3004B0BDE8F087B042B8BF74
:10131000304604B0BDE8F087012384F84220236101
:1013200004F1420A002384F84330BFE723681A0619
:1013300002D45E0600F1C1800D682A6804350D6094
:101340001546002A6BDBDFF884C10A2610E023680B
:101350001D0640F19C800B681D1D0D601D68DFF8A7
:101360006CC16F2A0CBF08260A26002384F843307C
:101370006268A260002A7FDB236823F004032360F5
:10138000002D5BD1002A79D18246082E65D0A0EBD2
:101390000A0020618AE70B680122186804330B6099
:1013A00004F1420A84F842002261BBE70B686268DC
:1013B000181D0860D3F800A00021504600F090F8F6
:1013C000002800F08180A0EB0A0060602061A9E79E
:1013D000236843F0200323607822DFF8F4C084F808
:1013E00045200A68151D0D601D0643D4590641D5D8
:1013F0001588DE0744BF43F020032360002D44D14D
:10140000236823F0200323601026AEE7582384F8D6
:101410004530DFF8B8C02368E3E72368DCE762689B
:10142000A2602D21002AC5F1000584F8431002DBDB
:1014300023F004032360DFF894C00A268246B5FB3C
:10144000F6F306FB13512A461CF801100AF8011D99
:10145000B2421D46F3D2082E99D12368D90796D5FA
:10146000626823699A4292DC30230AF8013C0AF14F
:10147000FF3A8CE71568BCE7002DDFD19CF80030FF
:1014800084F8423004F1420A7FE710266DE713F03A
:10149000400F0B6803F104050D600CBF1D681D882B
:1014A0005DE713F0400F0B68626903F104050D60FE
:1014B0001B6814BF1A801A60F5E60A68B2F900507A
:1014C00004320A602A463CE760687FE738910008EA
:1014D0004C91000800000000000000000000000027
:1014E00001F0FF01102A2BDB10F0070F08D010F8D5
:1014F000013B013A8B422DD010F0070F42B3F6D1D9
:10150000F0B441EA012141EA014122F007047FF0F1
:1015100000070023F0E80256083C85EA010586EA48
:10152000010685FA47F5A3FA87F586FA47F6A5FA84
:1015300087F68EB9EED1F0BC01F0FF0102F0070290
:1015400032B110F8013B013A83EA010313B1F8D13B
:101550000020704701387047002D06BF354603381C
:10156000073815F0010F07D1013015F4807F02BF55
:10157000013015F4C03F0130F0BC0138704700BFA6
:10158000844641EA000313F003036DD1403A41D38E
:1015900051F8043B40F8043B51F8043B40F8043B4D
:1015A00051F8043B40F8043B51F8043B40F8043B3D
:1015B00051F8043B40F8043B51F8043B40F8043B2D
:1015C00051F8043B40F8043B51F8043B40F8043B1D
:1015D00051F8043B40F8043B51F8043B40F8043B0D
:1015E00051F8043B40F8043B51F8043B40F8043BFD
:1015F00051F8043B40F8043B51F8043B40F8043BED
:1016000051F8043B40F8043B51F8043B40F8043BDC
:10161000403ABDD2303211D351F8043B40F8043B7C
:1016200051F8043B40F8043B51F8043B40F8043BBC
:1016300051F8043B40F8043B103AEDD20C3205D38C
:1016400051F8043B40F8043B043AF9D2043208D084
:10165000D2071CBF11F8013B00F8013B01D30B88F6
:1016600003806046704700BF082A13D38B078DD0D4
:1016700010F003038AD0C3F10403D21ADB071CBFA6
:1016800011F8013B00F8013B80D331F8023B20F810
:10169000023B7BE7043AD9D3013A11F8013B00F849
:1016A000013BF9D20B7803704B7843708B788370D1
:1016B0006046704788420DD98B1883420AD900EBE7
:1016C000020CBAB1624613F801CD02F801CD99427D
:1016D000F9D170470F2A0ED8034602F1FF3C4AB1F8
:1016E0000CF1010C013B8C4411F8012B03F8012F84
:1016F0006145F9D1704740EA01039B0750D1A2F13F
:10170000100370B501F1200C23F00F0501F1100E4C
:1017100000F11004AC441B095EF8105C44F8105C46
:101720005EF80C5C44F80C5C5EF8085C44F8085CFD
:101730005EF8045C44F8045C0EF1100EE64504F11A
:101740001004E9D1013312F00C0F01EB031102F088
:101750000F0400EB031327D0043C24F003064FEAE8
:10176000940C1E441C1F8E465EF8045B44F8045F14
:10177000B442F9D10CF1010402F0030203EB84033B
:1017800001EB840102F1FF3C4AB10CF1010C013B79
:101790008C4411F8012B03F8012F6145F9D170BD7C
:1017A00002F1FF3C03469BE72246EBE7002958D0B5
:1017B00030B551F8043C83B0002BA1F10404B8BF4C
:1017C000E418019000F0E8F8284A0198136833B152
:1017D000A3420DD9216804EB010C63452FD063604F
:1017E000146003B0BDE8304000F0D8B8A34210D870
:1017F0001A465B68002BF9D1116802EB010C6445B5
:1018000019D02FD36360546003B0BDE8304000F0BE
:10181000C5B8116802EB010CA44516D022D8216886
:1018200004EB010C6345EDD11D685B682944C4E9F4
:1018300000135460D5E7236819441160D1E71D688F
:101840005B682944C4E90013CAE72468214454189A
:10185000A3421160C5D1D3E900432144C2E900137A
:10186000BFE770470C230360BBE700BF1C010020EB
:10187000F8B5CD1C25F0030508350C2D38BF0C2517
:10188000002D064623DBA94221D8254F00F084F81D
:101890003A6822B3144603E063682246FBB11C4653
:1018A00023685B1BF8D40B2B15D8636894420CBFDC
:1018B0003B605360304600F071F804F10B00231DCB
:1018C00020F00700C21A01D01B1AA350F8BD0C2348
:1018D00033600020F8BD23601C442560EAE7796886
:1018E000C9B12946304600F045F8431C0CD0C41C51
:1018F00024F00304A04205D0211A304600F03AF843
:10190000013001D02560D5E70C233046336000F06C
:1019100045F80020F8BD304600F02CF87860E0E78C
:101920001C010020F8B51446F9B1CAB106460D46AF
:1019300000F036F8A04202D32F463846F8BD2146C3
:101940003046FFF795FF07460028F6D02246294685
:10195000FFF716FE30462946FFF728FF3846F8BD48
:101960002746FFF723FF3846F8BDBDE8F84011468B
:10197000FFF77EBF38B5074D0022044608462A60AF
:1019800007F068FA431C00D038BD2B68002BFBD051
:10199000236038BD24010020704700BF704700BF9E
:1019A00051F8040C0028A0F10400BCBF0B58C0186B
:1019B000704700BF80B584B000AF642005F016FC0E
:1019C0000A237B600023BB600A23FB600C4B0022D0
:1019D0001A600B4B00225A60094B00229A60084B98
:1019E0000022DA603B1D184607F026FB00F020FAC3
:1019F00000F084FB00F0EAFC00BF1037BD4680BD5C
:101A00002801002080B58AB000AF204B1B7803F07E
:101A10000103002B1BD000F075FA07211C4800F0D1
:101A2000ADF9034687F8273097F827201849134661
:101A30009B0013449B000B4410331B6815489847C8
:101A4000124B1B7823F00103DAB2104B1A700F4BC4
:101A50001B7803F00403002B08D000F09DFD0B4B16
:101A60001B7823F00403DAB2084B1A70074B1B787B
:101A700003F00803002BC8D000F044F8034B1B7898
:101A800023F00803DAB2014B1A70BEE74D010020C3
:101A9000640000206002002080B400AF00BFBD469B
:101AA0005DF8047B7047000080B58CB000AF7860B3
:101AB0007B681B687A6852680F4941F823207B686D
:101AC0001A687B6804331B6807F10C000B49FFF7A9
:101AD000FBF8034687F82F3097F82F309AB207F1BA
:101AE0000C011E23064806F086F900F0D7FA00BF65
:101AF00018463037BD4680BD28010020AC90000854
:101B0000F404002080B500AF114B1B6807EE903A3B
:101B1000F8EEE77A0F4B1B6807EE103AB8EEC77A7B
:101B20000020F0EE470AB0EE670A07F0F3F9F0EE96
:101B3000407A094BC3ED007A074BD3ED007AFDEEF6
:101B4000E77A17EE901A002000F08EFB00BF80BDF0
:101B500028010020380100204801002080B483B013
:101B600000AF786000BF18460C37BD465DF8047BB7
:101B70007047000080B58CB000AF78607B681B6850
:101B8000002B0FD101224FF40051164805F044F804
:101B900007F10C0314491846FFF796F8034687F837
:101BA0002F300EE000224FF400510E4805F034F8BB
:101BB00007F10C030D491846FFF786F8034687F82E
:101BC0002F3097F82F309AB207F10C0311461846C0
:101BD00000F03EF900F062FA00BF18463037BD460B
:101BE00080BD00BF00080240CC900008D4900008DF
:101BF00080B58EB002AF78600023FB8523E007F14B
:101C00000C02F98D0A2300930123144801F0A2FA73
:101C10000346002B14D1FA8D07F10C031049184626
:101C2000FFF752F8034687F82D3097F82D309AB217
:101C300007F10C031146184600F00AF900F02EFADD
:101C4000FB8D0133FB85FB8DFE2BD8D900F026FAE6
:101C500000BF18463037BD4680BD00BF5804002085
:101C6000DC90000880B590B004AF78607B681B689A
:101C700099B27B6804331B689AB27B6808331B688F
:101C80009BB24FF4FA700290019307F1080300939E
:101C90000123104801F088FC7B7A1A463B7ADB006E
:101CA0001A4407F10C030C491846FFF70DF80346D8
:101CB00087F82F3097F82F309AB207F10C031146AE
:101CC000184600F0C5F800F0E9F900BF18463037B3
:101CD000BD4680BD58040020DC90000880B582B06D
:101CE00000AF78607B681B68194A934213D1184B88
:101CF0005B68184600F0C0F80346002B06D0154B71
:101D00001B7843F00103DAB2124B1A700122124918
:101D1000124806F0FBF87B681B68114A934213D106
:101D20000F4B5B68184600F0A7F80346002B06D05F
:101D3000084B1B7843F00203DAB2064B1A700122FB
:101D40000549084806F0E2F800BF0837BD4680BDE7
:101D5000001001404D0100204C010020F40400203F
:101D6000004400403C05002080B483B000AF7860A0
:101D700000BF0C37BD465DF8047B704780B58CB062
:101D800000AF78600B46FB70164B1B781A46164B5B
:101D90009A4201D1002321E0012387F82F3017E078
:101DA00097F82F2013469B0013449B001A467B682C
:101DB00013440C49184600F019F80346002B02D0D2
:101DC00097F82F300AE097F82F30013387F82F303B
:101DD00097F82F20FB789A42E2D300231846303739
:101DE000BD4680BD50020020E090000880B485B060
:101DF00000AF786039600023FB730EE0FB7B7A68EC
:101E000013441A78FB7B39680B441B789A4201D043
:101E1000002306E0FB7B0133FB73FB7B0F2BEDD92B
:101E2000012318461437BD465DF8047B7047000057
:101E300080B500AF044B1B6801220449184606F028
:101E400065F800BF80BD00BFF00000204C010020FD
:101E500080B582B000AF78600B467B80054B186878
:101E60007A886423796805F0C6FF00BF0837BD464D
:101E700080BD00BFF000002080B5C6B000AF0246B4
:101E800007F58C73A3F211131A7007F58C73A3F284
:101E900011131B780D2B12D1174B1B781A4607F51F
:101EA0008C73A3F211131978144B9954124B00221E
:101EB0001A7008211248FFF7CBFF012316E00E4BE2
:101EC0001B781A4607F58C73A3F2111319780B4B84
:101ED0009954FB1D01211846FFF7BAFF064B1B78EA
:101EE0000133DAB2044B1A7000BF0023184607F51D
:101EF0008C77BD4680BD00BF8802002050010020C5
:101F00000491000880B487B000AF0023FB7506E0A1
:101F1000FB7D5F4A0021D154FB7D0133FB75FB7DC6
:101F20000F2BF5D90023BB7507E0BB7D594A002173
:101F300042F82310BB7D0133BB75BB7D092BF4D95F
:101F4000554B3B61524BFB603B691B78FB72002396
:101F5000BB7205E03B6901333B613B691B78FB7257
:101F6000FB7A202BF6D00EE0FB68FA7A1A70BB7A67
:101F70000133BB723B6901333B613B691B78FB72E8
:101F8000FB680133FB60FB7A202B14BF0123002385
:101F9000DAB2FB7A0D2B14BF01230023DBB213400E
:101FA000DBB2002BE0D105E03B6901333B613B69CB
:101FB0001B78FB72FB7A202BF6D000237B72012367
:101FC0003B72344B00221A603EE0FB7A202B16D184
:101FD0007B7A304A52F8232097F908107B7A01FB6C
:101FE00002F22C4941F8232001233B727B7A013312
:101FF0007B727B7A274A002142F823101EE0FB7A8D
:102000002D2B02D1FF233B7218E07B7A214A52F834
:102010002320797A13469B0013445B001A461D4B1C
:1020200043F821207B7A1B4A52F82310FB7A23F0D5
:1020300030027B7A0A44174941F823203B69013377
:102040003B613B691B78FB72FB7A0D2BBDD17B7A20
:10205000104A52F8232097F908107B7A01FB02F20C
:102060000C4941F823200023FB8006E0FB880A4A44
:102070000021D154FB880133FB80FB88FF2BF5D96D
:1020800000BF00BF1C37BD465DF8047B704700BF32
:1020900050020020600200205001002080B500AFF7
:1020A00008210248FFF7D4FE00BF80BD049100085C
:1020B00080B400AF0D4B4FF480621A800B4B0422AA
:1020C0005A800A4B0A4A5A60084B0A4A9A60074BE0
:1020D00000229A81054B01221A75044B064A9A6127
:1020E00000BFBD465DF8047B704700BF8C02002036
:1020F00000040240AC0400203400014080B582B0EE
:1021000000AFFFF7D5FF0023FB716EE0FA793B4982
:102110001346DB009B1A9B000B4418331B680022FC
:102120001A60FA7935491346DB009B1A9B000B4471
:1021300014331B78012B15D1FA7930491346DB0093
:102140009B1A9B000B4408331868FA792B491346F5
:10215000DB009B1A9B000B440C331B88194605F0CF
:1021600069FC14E0FA7925491346DB009B1A9B00B1
:102170000B4408331868FA7920491346DB009B1A90
:102180009B000B440C331B88194605F0A3F8FA7921
:102190001A491346DB009B1A9B000B440433186852
:1021A000FA7916491346DB009B1A9B000B441B88E7
:1021B0000122194604F030FDFA7910491346DB007C
:1021C0009B1A9B000B4404331868FA790B49134699
:1021D000DB009B1A9B000B4402331B88012219462B
:1021E00004F01AFDFB790133FB71FB79002B8DD0D4
:1021F00000BF00BF0837BD4680BD00BF8C02002075
:1022000080B58EB002AF78607B681B68DAB27B68FD
:1022100004331B681946104600F026F87B681A68DC
:102220007B68083319687B6804331B6807F10C006E
:1022300000930B460A49FEF747FD034687F82F3007
:1022400097F82F309AB207F10C011E23054805F0CC
:10225000D2FDFFF723FF012318463037BD4680BD6E
:10226000E4900008F404002080B582B000AF03467B
:102270003960FB713B68002B2BD1FA795249134628
:10228000DB009B1A9B000B4404331868FA794E4913
:102290001346DB009B1A9B000B441B880122194646
:1022A00004F0BAFCFA7948491346DB009B1A9B00FC
:1022B0000B4404331868FA7943491346DB009B1A30
:1022C0009B000B4402331B880122194604F0A4FC36
:1022D00075E03B68002B38DDFA793B491346DB009B
:1022E0009B1A9B000B4404331868FA79364913464D
:1022F000DB009B1A9B000B441B880122194604F04B
:102300008BFCFA7930491346DB009B1A9B000B4487
:1023100004331868FA792C491346DB009B1A9B009A
:102320000B4402331B880022194604F075FC3B68FD
:1023300098B2FA7924491346DB009B1A9B000B44A0
:1023400018331B6802461A6039E0FA791E491346B1
:10235000DB009B1A9B000B4404331868FA791A4976
:102360001346DB009B1A9B000B441B880022194676
:1023700004F052FCFA7914491346DB009B1A9B00C7
:102380000B4404331868FA790F491346DB009B1A93
:102390009B000B4402331B880122194604F03CFCCD
:1023A0003B689BB25B4298B2FA7907491346DB005F
:1023B0009B1A9B000B4418331B6802461A6000BF2F
:1023C0000837BD4680BD00BF8C02002080B400AF3E
:1023D000484B45F2ED425A60464B474A1A63454B1B
:1023E000002283F83420434B012283F83520414BEF
:1023F00000221A613F4B002283F836203D4B45F204
:10240000ED42DA633B4B3C4A9A663A4B002283F832
:102410006C20384B022283F86D20364B00229A64E0
:10242000344B012283F86E20324B45F2ED425A675D
:10243000304B314AC3F8A0202E4B002283F8A42051
:102440002C4B042283F8A5202A4B0022C3F88020BD
:10245000284B002283F8A620264B45F2ED42C3F814
:10246000AC20244B244AC3F8D820224B002283F806
:10247000DC20204B082283F8DD201E4B0022C3F80D
:10248000B8201C4B012283F8DE201A4B0022C3F82F
:10249000E420184B184AC3F81021164B002283F889
:1024A0001421144B102283F81521124B0022C3F87B
:1024B000F020104B012283F816210E4B0022C3F8A6
:1024C0001C210C4B0C4AC3F848210A4B002283F80C
:1024D0004C21084B202283F84D21064B0022C3F8E3
:1024E0002821044B012283F84E2100BFBD465DF830
:1024F000047B7047000300205804002080B483B0A0
:1025000000AF78607B681B881A467B681B89D21AEB
:102510007B685A617B685B69962B09DD7B681B8849
:10252000C3F580537A68128913445A427B685A6112
:102530007B685B6913F1960F08DA7B681B89C3F52A
:1025400080537A6812881A447B685A617B6893F8D2
:102550003630002B04D07B685B695A427B685A6135
:102560007B681A697B685B691A447B681A617B68BF
:1025700093F83430002B05D17B6800225A617B68C8
:1025800000221A617B68012283F8342000BF0C37D7
:10259000BD465DF8047B704780B500AF0123054A56
:1025A000E021054800F0D4FE044B00221A7000BF61
:1025B00080BD00BF350300205804002054040020D3
:1025C00080B582B000AF78607B681B68224A934276
:1025D0003DD1224B1B789BB21B029AB21F4B5B78FA
:1025E0009BB21F490978134498B21E4A0B46DB0080
:1025F0005B1ADB00134402461A80194B1B781A46FB
:102600001346DB009B1ADB00164A13441846FFF7FB
:1026100075FF134B1B78042B16D8114B1B785A1CD3
:102620001346DB009B1ADB0030330E4A13445A1D5D
:102630000123E0210C4800F08BFE094B1B7801338D
:10264000DAB2074B1A7002E0054B00221A7000BF85
:102650000837BD4680BD00BF005400405004002034
:1026600054040020000300205804002080B584B0EA
:1026700002AF78600B4B1B7819460B4A0B46DB0008
:102680005B1ADB0013443033186802230193074BB5
:10269000009301230C226C2101F0B8F900BF083728
:1026A000BD4680BD540400200003002050040020DB
:1026B00080B500AF04F028FD00F012F800F07EF9BC
:1026C00000F0A4F800F026F900F04EF900F070F8E0
:1026D000FFF770F9FFF7E0F9FFF794F9FEE7000064
:1026E00080B594B000AF07F12003302200211846D6
:1026F000FDF7BEFD07F10C0300221A605A609A60D4
:10270000DA601A610023BB60274B1B6C264A43F03A
:1027100080531364244B1B6C03F08053BB60BB6875
:1027200000237B60214B1B68204A43F44043136025
:102730001E4B1B6803F440437B607B6802233B62B3
:102740000123FB6210233B630223BB630023FB6373
:1027500008233B6464237B640223BB640423FB647F
:1027600007F12003184603F07BFC0346002B01D041
:1027700000F08EF90F23FB6002233B6100237B6195
:102780004FF48053BB610023FB6107F10C0303216D
:10279000184603F0DDFE0346002B01D000F078F967
:1027A00000BF5037BD4680BD003802400070004079
:1027B00080B500AF124B134A1A60114B124A5A608F
:1027C0000F4B00229A600E4B0022DA600C4B4FF444
:1027D00080421A610A4B00225A61094B00229A6119
:1027E000074B0022DA61064B00221A62044800F00F
:1027F00057FB0346002B01D000F04AF900BF80BD13
:102800005804002000540040801A060080B592B0A1
:1028100000AF07F1400300221A605A6007F1240359
:1028200000221A605A609A60DA601A615A619A61ED
:102830003B1D202200211846FDF71AFD334B344A78
:102840001A60324B05225A60304B00229A602F4B9F
:1028500041F28832DA602D4B00221A612B4B0022A4
:102860005A612A4B00229A61284804F0E3FC03468F
:10287000002B01D000F00CF900233B6400237B64A3
:1028800007F140031946214805F080F90346002B63
:1028900001D000F0FDF860237B620023BB620023BF
:1028A000FB6200233B6300237B630023BB630023A5
:1028B000FB6307F1240300221946144804F0BAFD13
:1028C0000346002B01D000F0E3F800237B600023D7
:1028D000BB600023FB6000233B6100237B614FF45E
:1028E0000053BB6100233B623B1D1946074805F0BE
:1028F000BBF90346002B01D000F0CAF8034800F0F2
:1029000009FA00BF4837BD4680BD00BFAC040020B7
:102910000000014080B500AF104B114A1A600F4B08
:10292000104A5A600D4B00229A600C4B0022DA606C
:102930000A4B00221A61094B0C225A61074B0022F4
:102940009A61064B0022DA61044805F004FA034656
:10295000002B01D000F09CF800BF80BDF4040020E3
:102960000010014020A1070080B500AF114B124AB2
:102970001A60104B4FF47A325A600E4B00229A6064
:102980000C4B0022DA600B4B00221A61094B0C221F
:102990005A61084B00229A61064B0022DA61054811
:1029A00005F0D9F90346002B01D000F071F800BF03
:1029B00080BD00BF3C0500200044004080B588B0C9
:1029C00000AF07F10C0300221A605A609A60DA60C7
:1029D0001A610023BB602B4B1B6B2A4A43F0040394
:1029E0001363284B1B6B03F00403BB60BB6800231D
:1029F0007B60244B1B6B234A43F001031363214B81
:102A00001B6B03F001037B607B6800233B601D4B65
:102A10001B6B1C4A43F0020313631A4B1B6B03F03E
:102A200002033B603B6800224FF40051164804F05B
:102A3000F3F8002240F20441144804F0EDF84FF49A
:102A40000053FB6001233B6100237B610023BB61DA
:102A500007F10C0319460C4803F05AFF40F20443F7
:102A6000FB6001233B6100237B610023BB6107F115
:102A70000C031946054803F04BFF00BF2037BD4645
:102A800080BD00BF00380240000802400004024040
:102A900080B400AF72B600BFFEE780B400AFFEE7BF
:102AA00080B400AFFEE780B400AFFEE780B400AFB3
:102AB000FEE780B400AFFEE780B400AF00BFBD46C4
:102AC0005DF8047B704780B400AF00BFBD465DF881
:102AD000047B704780B400AF00BFBD465DF8047B47
:102AE0007047000080B500AF204B1A68204BA3FB55
:102AF00002131B09322101FB03F3D31A002B06D169
:102B00001C4B1B7843F00403DAB21A4B1A70174BB4
:102B10001B680133154A1360144B1A68164BA3FB4C
:102B200002135B094FF4FA7101FB03F3D31A002B74
:102B300004D14FF40051114804F087F80B4B1A6888
:102B40000B4BA3FB02131B09322101FB03F3D31A26
:102B5000002B06D1074B1B7843F00803DAB2054B74
:102B60001A7004F023FB00BF80BD00BF8405002065
:102B70001F85EB514D010020D34D6210000802402B
:102B800080B500AF024801F0D1F800BF80BD00BFA2
:102B90005804002080B500AF024801F038FA00BFA9
:102BA00080BD00BF5804002080B500AF024805F08A
:102BB000D3F900BF80BD00BFF404002080B500AF92
:102BC000024805F0C9F900BF80BD00BF3C050020E8
:102BD00080B483B000AF00237B60104B5B6C0F4A66
:102BE00043F4804353640D4B5B6C03F480437B6080
:102BF0007B6800233B60094B1B6C084A43F0805301
:102C00001364064B1B6C03F080533B603B6800BFB2
:102C10000C37BD465DF8047B704700BF00380240AA
:102C200080B58AB000AF786007F1140300221A6003
:102C30005A609A60DA601A617B681B68214A934285
:102C40003BD100233B61204B1B6B1F4A43F0020327
:102C500013631D4B1B6B03F002033B613B69C023F5
:102C60007B611223BB610023FB6103233B620423CE
:102C70007B6207F114031946144803F049FE002350
:102C8000FB60114B1B6C104A43F4001313640E4B92
:102C90001B6C03F40013FB60FB68002200211F2063
:102CA00004F0FBF91F2004F014FA00220021202078
:102CB00004F0F3F9202004F00CFA00BF2837BD46D9
:102CC00080BD00BF005400400038024000040240B4
:102CD00080B485B000AF78607B681B680B4A934274
:102CE0000DD10023FB600A4B5B6C094A43F00103E2
:102CF0005364074B5B6C03F00103FB60FB6800BF90
:102D00001437BD465DF8047B704700BF00000140EA
:102D10000038024080B588B000AF786007F10C033E
:102D200000221A605A609A60DA601A617B681B6838
:102D3000124A93421ED10023BB60114B1B6B104AF9
:102D400043F0020313630E4B1B6B03F00203BB60E3
:102D5000BB684FF40053FB6002233B6100237B619F
:102D60000023BB610123FB6107F10C0319460548F1
:102D700003F0CEFD00BF2037BD4680BD00000140FE
:102D8000003802400004024080B58CB000AF78608B
:102D900007F11C0300221A605A609A60DA601A6117
:102DA0007B681B683A4A934235D10023BB61394B9B
:102DB0005B6C384A43F010035364364B5B6C03F092
:102DC0001003BB61BB6900237B61324B1B6B314A33
:102DD00043F0010313632F4B1B6B03F001037B6173
:102DE0007B694FF40443FB6102233B6200237B6257
:102DF0000323BB620723FB6207F11C031946264825
:102E000003F086FD00220021252004F046F925204C
:102E100004F05FF938E07B681B68204A934233D1A5
:102E200000233B611B4B1B6C1A4A43F400331364B1
:102E3000184B1B6C03F400333B613B690023FB60C0
:102E4000144B1B6B134A43F001031363114B1B6BB1
:102E500003F00103FB60FB680C23FB6102233B6270
:102E600000237B620323BB620723FB6207F11C0381
:102E70001946094803F04CFD00220021262004F0E9
:102E80000CF9262004F025F900BF3037BD4680BD7F
:102E900000100140003802400000024000440040A1
:102EA00080B584B000AF78607B68002B01D101232E
:102EB0002BE17B6893F83D30DBB2002B06D17B68B9
:102EC000002283F83C207868FFF7AAFE7B68242262
:102ED00083F83D207B681B681A687B681B6822F0BA
:102EE00001021A607B681B681A687B681B6842F4E1
:102EF00000421A607B681B681A687B681B6822F4B2
:102F000000421A6003F0DCFCF8607B685B68814A71
:102F1000934207D8FB68804A934294BF0123002361
:102F2000DBB206E0FB687D4A934294BF0123002395
:102F3000DBB2002B01D00123E7E0FB68784AA2FB5B
:102F400003239B0CBB607B681B685B6823F03F011D
:102F50007B681B68BA680A435A607B681B681B6AF7
:102F600023F03F017B685B686A4A934202D8BB68E2
:102F7000013309E0BB684FF4967202FB03F3694A20
:102F8000A2FB03239B0901337A6812680B43136287
:102F90007B681B68DB6923F44F4222F0FF027B68E9
:102FA0005B685C498B4219D8FB68591E7B685B687B
:102FB0005B00B1FBF3F3591C40F6FC730B40002B94
:102FC0000AD0FB68591E7B685B685B00B1FBF3F3BA
:102FD0000133C3F30B0351E004234FE07B689B688C
:102FE000002B11D1FB68581E7B6859680B465B00AB
:102FF0000B44B0FBF3F30133C3F30B03002B0CBF03
:1030000001230023DBB212E0FB68581E7B6859687D
:103010000B469B000B4499000B44B0FBF3F30133C8
:10302000C3F30B03002B0CBF01230023DBB2002BE7
:1030300001D0012322E07B689B68002B0ED1FB6846
:10304000581E7B6859680B465B000B44B0FBF3F3DA
:103050000133C3F30B0343F400430FE0FB68581E36
:103060007B6859680B469B000B4499000B44B0FBEE
:10307000F3F30133C3F30B0343F440437968096866
:103080001343CB617B681B681B6823F0C0017B681E
:10309000DA697B681B6A1A437B681B680A431A60FB
:1030A0007B681B689B6823F4034323F0FF037A6863
:1030B00011697A68D26811437A6812680B43936089
:1030C0007B681B68DB6823F0FF017B685A697B68BB
:1030D0009B691A437B681B680A43DA607B681B683C
:1030E0001A687B681B6842F001021A607B68002244
:1030F0001A647B68202283F83D207B6800221A63D3
:103100007B68002283F83E20002318461037BD4616
:1031100080BD00BFA08601007F841E00FF083D0027
:1031200083DE1B43D34D621080B483B000AF786060
:103130007B681B685B6903F08003802B03D17B688D
:103140001B6800221A6100BF0C37BD465DF8047B86
:103150007047000080B588B002AFF8607A601A4608
:103160000B467B8113463B8104F034F87861FB68A1
:1031700093F83D30DBB2202B40F0E0807B69009378
:10318000192301227049F86802F0E6FC0346002B7F
:1031900001D00223D3E0FB6893F83C30012B01D12E
:1031A0000223CCE0FB68012283F83C20FB681B680B
:1031B0001B6803F00103012B07D0FB681B681A682A
:1031C000FB681B6842F001021A60FB681B681A6802
:1031D000FB681B6822F400621A60FB68212283F8F6
:1031E0003D20FB68102283F83E20FB6800221A6411
:1031F000FB687A685A62FB683A895A85FB685B8D7E
:103200009AB2FB681A85FB68504ADA6279897B6951
:103210003A6AF86802F072F90346002B01D00123E4
:103220008DE000233B61FB681B685B693B61FB68C9
:103230001B689B693B613B6966E07A69396AF8689B
:1032400002F0A4FD0346002B0DD0FB681B6C042B81
:1032500007D1FB681B681A68FB681B6842F40072A0
:103260001A6001236BE0FB685B6A1A78FB681B68D5
:103270001A61FB685B6A5A1CFB685A62FB685B8DCB
:103280009BB2013B9AB2FB685A85FB681B8D013BE0
:103290009AB2FB681A85FB681B685B6903F004033C
:1032A000042B1BD1FB681B8D002B17D0FB685B6ABE
:1032B0001A78FB681B681A61FB685B6A5A1CFB681A
:1032C0005A62FB685B8D9BB2013B9AB2FB685A85E0
:1032D000FB681B8D013B9AB2FB681A857A69396AD3
:1032E000F86802F09BFD0346002B0DD0FB681B6CB9
:1032F000042B07D1FB681B681A68FB681B6842F443
:1033000000721A6001231AE0FB681B8D002B94D118
:10331000FB681B681A68FB681B6842F400721A603D
:10332000FB68202283F83D20FB68002283F83E20C2
:10333000FB68002283F83C20002300E002231846AB
:103340001837BD4680BD00BF020010000000FFFF1F
:1033500080B586B000AFF8607A601A460B467B8174
:1033600013463B8100233B61FB6893F83D30DBB2A1
:10337000202B40F00981874B1B68DB08864AA2FBA3
:1033800003231A0A13469B0013449A0013443B611B
:103390003B69013B3B613B69002B12D1FB6800227A
:1033A0001A63FB68202283F83D20FB68002283F823
:1033B0003E20FB681B6C43F02002FB681A6402236A
:1033C000E3E0FB681B689B6903F00203022BDFD07C
:1033D000FB6893F83C30012B01D10223D5E0FB6858
:1033E000012283F83C20FB681B681B6803F0010383
:1033F000012B07D0FB681B681A68FB681B6842F04A
:1034000001021A60FB681B681A68FB681B6822F4DB
:1034100000621A60FB68212283F83D20FB681022BD
:1034200083F83E20FB6800221A64FB687A685A62BF
:10343000FB683A895A85FB685B8D9AB2FB681A85EE
:10344000FB68564ADA627A89FB685A64FB681B8D0E
:10345000002B7BD0FB685B6B002B2AD0FB685B6B7F
:103460004F4ADA63FB685B6B4E4ADA64FB685B6B5E
:1034700000221A64FB685B6B00225A64FB685B6B7A
:1034800000229A64FB685B6B00221A65FB68586B2C
:10349000FB685B6A1946FB681B6810331A46FB68B9
:1034A0001B8D03F0ECFB0346FB75FB7D002B39D134
:1034B00013E0FB68202283F83D20FB68002283F89C
:1034C0003E20FB681B6C43F08002FB681A64FB68BB
:1034D000002283F83C20012357E0FB68002283F898
:1034E0003C20FB681B685A68FB681B6842F440720A
:1034F0005A60FB681B685A68FB681B6842F40062EC
:103500005A60FB681B681A68FB681B6842F480629B
:103510001A60FB681B681A68FB681B6842F48072BB
:103520001A602FE0FB68202283F83D20FB68002210
:1035300083F83E20FB681B6C43F01002FB681A64A2
:10354000FB68002283F83C2001231EE0FB681B6817
:103550001A68FB681B6842F480621A60FB681B688B
:103560001A68FB681B6842F480721A60FB680022CC
:1035700083F83C20FB681B685A68FB681B6842F4B0
:10358000E0625A60002300E0022318461837BD4667
:1035900080BD00BFFC00002089B5F8140000FFFFCB
:1035A000D15700088F59000880B58CB002AFF86081
:1035B000084611461A4603467B810B463B8113465B
:1035C000FB8003F007FE7862FB6893F83D30DBB2C6
:1035D000202B40F014827B6A0093192301227B493F
:1035E000F86802F0B9FA0346002B01D0022307E283
:1035F000FB6893F83C30012B01D1022300E2FB6809
:10360000012283F83C20FB681B681B6803F0010360
:10361000012B07D0FB681B681A68FB681B6842F027
:1036200001021A60FB681B681A68FB681B6822F4B9
:1036300000621A60FB68222283F83D20FB6840226A
:1036400083F83E20FB6800221A64FB683A6B5A62DA
:10365000FB68BA8E5A85FB685B8D9AB2FB681A8547
:10366000FB685B4ADA62F8883A8979897B6A019358
:10367000BB6B00930346F86801F0C2FF0346002BC2
:1036800001D00123BCE1FB681B8D002B13D100236B
:103690003B62FB681B685B693B62FB681B689B695C
:1036A0003B623B6AFB681B681A68FB681B6842F454
:1036B00000721A6090E1FB681B8D012B1BD1FB6827
:1036C0001B681A68FB681B6822F480621A6000237A
:1036D000FB61FB681B685B69FB61FB681B689B699E
:1036E000FB61FB69FB681B681A68FB681B6842F496
:1036F00000721A6070E1FB681B8D022B1BD1FB6806
:103700001B681A68FB681B6822F480621A60FB68F9
:103710001B681A68FB681B6842F400621A60002389
:10372000BB61FB681B685B69BB61FB681B689B69CD
:10373000BB61BB6950E100237B61FB681B685B696F
:103740007B61FB681B689B697B617B6944E1FB686B
:103750001B8D032B00F2F180FB681B8D012B23D105
:103760007A6AB96BF86802F0D3FB0346002B01D0EC
:10377000012345E1FB681B681A69FB685B6AD2B2EA
:103780001A70FB685B6A5A1CFB685A62FB681B8DE7
:10379000013B9AB2FB681A85FB685B8D9BB2013BCB
:1037A0009AB2FB685A8517E1FB681B8D022B4ED13C
:1037B0007B6A0093BB6B00220649F86802F0CCF9E3
:1037C0000346002B08D001231AE100BF02001000BD
:1037D0000000FFFF04000100FB681B681A68FB681B
:1037E0001B6842F400721A60FB681B681A69FB6868
:1037F0005B6AD2B21A70FB685B6A5A1CFB685A6239
:10380000FB681B8D013B9AB2FB681A85FB685B8DD8
:103810009BB2013B9AB2FB685A85FB681B681A6928
:10382000FB685B6AD2B21A70FB685B6A5A1CFB6861
:103830005A62FB681B8D013B9AB2FB681A85FB68D4
:103840005B8D9BB2013B9AB2FB685A85C4E07B6AF0
:103850000093BB6B00226C49F86802F07DF90346C7
:10386000002B01D00123CBE0FB681B681A68FB68C2
:103870001B6822F480621A60FB681B681A69FB6887
:103880005B6AD2B21A70FB685B6A5A1CFB685A62A8
:10389000FB681B8D013B9AB2FB681A85FB685B8D48
:1038A0009BB2013B9AB2FB685A857B6A0093BB6B63
:1038B00000225549F86802F04FF90346002B01D069
:1038C00001239DE0FB681B681A68FB681B6842F4D3
:1038D00000721A60FB681B681A69FB685B6AD2B2E7
:1038E0001A70FB685B6A5A1CFB685A62FB681B8D86
:1038F000013B9AB2FB681A85FB685B8D9BB2013B6A
:103900009AB2FB685A85FB681B681A69FB685B6A98
:10391000D2B21A70FB685B6A5A1CFB685A62FB6879
:103920001B8D013B9AB2FB681A85FB685B8D9BB2CD
:10393000013B9AB2FB685A854EE07A6AB96BF86827
:1039400002F0E6FA0346002B01D0012358E0FB68A1
:103950001B681A69FB685B6AD2B21A70FB685B6A03
:103960005A1CFB685A62FB681B8D013B9AB2FB68CC
:103970001A85FB685B8D9BB2013B9AB2FB685A8546
:10398000FB681B685B6903F00403042B24D1FB680C
:103990001B8D032B07D1FB681B681A68FB681B682B
:1039A00022F480621A60FB681B681A69FB685B6A14
:1039B000D2B21A70FB685B6A5A1CFB685A62FB68D9
:1039C0001B8D013B9AB2FB681A85FB685B8D9BB22D
:1039D000013B9AB2FB685A85FB681B8D002B7FF474
:1039E000B6AEFB68202283F83D20FB68002283F8F6
:1039F0003E20FB68002283F83C20002300E00223E5
:103A000018462837BD4680BD0400010080B58CB043
:103A100002AFF860084611461A4603467B810B4602
:103A20003B811346FB8003F0D5FB78620023FB61EA
:103A3000FB6893F83D30DBB2202B40F07281934B52
:103A40001B68DB08924AA2FB03231A0A13469B0059
:103A500013449A001344FB61FB69013BFB61FB6962
:103A6000002B12D1FB6800221A63FB68202283F826
:103A70003D20FB68002283F83E20FB681B6C43F06E
:103A80002002FB681A6402234CE1FB681B689B69F7
:103A900003F00203022BDFD0FB6893F83C30012BCC
:103AA00001D102233EE1FB68012283F83C20FB6840
:103AB0001B681B6803F00103012B07D0FB681B6820
:103AC0001A68FB681B6842F001021A60FB681B68F9
:103AD0001A68FB681B6822F400621A60FB682222E5
:103AE00083F83D20FB68402283F83E20FB680022DB
:103AF0001A64FB683A6B5A62FB68BA8E5A85FB6897
:103B00005B8D9AB2FB681A85FB68624ADA627A8931
:103B1000FB685A643A89FB689A64FA88FB68DA643D
:103B2000FB6800221A65FB681B8D002B00F0CC801F
:103B3000FB689B6B002B2DD0FB689B6B564ADA63AE
:103B4000FB689B6B554ADA64FB689B6B00221A6426
:103B5000FB689B6B00225A64FB689B6B00229A6493
:103B6000FB689B6B00221A65FB68986BFB681B68FF
:103B700010331946FB685B6A1A46FB681B8D03F01D
:103B80007EF8034687F8233097F82330002B40F067
:103B9000878013E0FB68202283F83D20FB68002229
:103BA00083F83E20FB681B6C43F08002FB681A64BC
:103BB000FB68002283F83C200123B3E0F8883A89AF
:103BC00079897B6A0193232300930346F86801F007
:103BD00017FD0346002B23D0FB689B6B184603F0B0
:103BE00016F9034687F82330FB689B6B0022DA63E3
:103BF000FB681B681A68FB681B6822F480621A6005
:103C0000FB6800221A85FB6800225A85FB681B6846
:103C10001A68FB681B6822F001021A60012381E028
:103C2000FB681B8D012B08D1FB681B681A68FB68B9
:103C30001B6822F480621A6007E0FB681B685A6800
:103C4000FB681B6842F480525A600023BB61FB682A
:103C50001B685B69BB61FB681B689B69BB61BB69D7
:103C6000FB68002283F83C20FB681B685A68FB68ED
:103C70001B6842F480725A60FB681B685A68FB68D4
:103C80001B6842F400625A6049E000BFFC0000205B
:103C900089B5F8140000FFFFD15700088F590008BC
:103CA000FB68202283F83D20FB68002283F83E2039
:103CB000FB681B6C43F01002FB681A64FB6800226F
:103CC00083F83C2001232DE0F8883A8979897B6AC2
:103CD0000193232300930346F86801F091FC034607
:103CE000002B01D001231DE000237B61FB681B68D2
:103CF0005B697B61FB681B689B697B617B69FB6817
:103D00001B681A68FB681B6842F400721A60FB6843
:103D1000202283F83D20FB68002283F83C2000230A
:103D200000E0022318462837BD4680BD80B588B024
:103D300000AF78600023BB617B681B685B687B61B8
:103D40007B68DB6A3B617B6893F83E30FB737B6882
:103D500093F83D30BB73FB7B102B03D0FB7B402BD8
:103D600040F0C1807B681B689B69BB617B681B68F6
:103D70005B69FB61FB6903F00103002B0DD13B691B
:103D8000B3F52A0F03D03B69B3F12A4F01D10123C8
:103D900000E00023012B00F03281FB6903F00103F6
:103DA000002B0CD07B695B0A03F00103002B06D0CB
:103DB000786802F039F9786800F081FD92E0FB69DB
:103DC000DB0803F00103002B09D07B695B0A03F0D9
:103DD0000103002B03D0786800F0F7FD82E0FB6957
:103DE0005B0803F00103002B09D07B695B0A03F039
:103DF0000103002B03D0786800F011FE72E0BB696C
:103E00009B0803F00103002B3BD07B681B685B68B9
:103E100003F40063B3F5006F00F0F380FB69DB0986
:103E200003F00103002B0FD07B699B0A03F0010311
:103E3000002B09D0FB699B0803F00103002B03D181
:103E4000786800F0D5F94DE0FB699B0803F00103A9
:103E5000002B00F0D6807B695B0A03F00103002B86
:103E600000F0CF80BB7B212B03D1786800F05CFA97
:103E7000C7E0FB7B402B40F0C480786800F0CAFAB2
:103E8000BFE07B681B685B6803F40063B3F5006FF9
:103E900000F0B780FB699B0903F00103002B0FD0F2
:103EA0007B699B0A03F00103002B09D0FB699B0887
:103EB00003F00103002B03D1786800F043FB11E00D
:103EC000FB699B0803F00103002B00F09A807B69DB
:103ED0005B0A03F00103002B00F09380786800F088
:103EE000F9FB8EE08DE07B681B6C002B04D07B68B7
:103EF0001B685B69FB6107E07B681B689B69BB61B2
:103F00007B681B685B69FB61FB695B0803F001036D
:103F1000002B12D07B695B0A03F00103002B0CD04D
:103F20007B681B6C002B03D07B681B689B69BB61A3
:103F3000B969786800F0C2FF66E0FB691B0903F00D
:103F40000103002B09D07B695B0A03F00103002BFE
:103F500003D0786800F0FCFF56E0BB7B212B02D039
:103F6000BB7B292B25D1FB69DB0903F00103002B67
:103F70000FD07B699B0A03F00103002B09D0FB697A
:103F80009B0803F00103002B03D1786800F0D8FEF2
:103F900039E0FB699B0803F00103002B33D07B69F8
:103FA0005B0A03F00103002B2DD0786800F005FFB9
:103FB00029E0FB699B0903F00103002B0FD07B690B
:103FC0009B0A03F00103002B09D0FB699B0803F057
:103FD0000103002B03D1786800F010FF14E0FB69A7
:103FE0009B0803F00103002B0ED07B695B0A03F0F2
:103FF0000103002B08D0786800F03EFF04E000BF0A
:1040000002E000BF00E000BF2037BD4680BD80B5A4
:104010008AB000AF78607B681B685B693B627B6835
:104020001B685B68FB6100237B627B6893F83E3012
:10403000FB763B6A1B0A03F00103002B0ED0FB69E1
:104040001B0A03F00103002B08D07B6A43F0010335
:104050007B627B681B686FF480725A613B6A5B0A03
:1040600003F00103002B0ED0FB691B0A03F00103D0
:10407000002B08D07B6A43F002037B627B681B68DD
:104080006FF400725A613B6A9B0A03F00103002B34
:104090003FD0FB691B0A03F00103002B39D0FB7EE4
:1040A000BB767B685B8D9BB27B617B6893F83D3010
:1040B000FB747B681B6BFB60BB7E202B12D17B6982
:1040C000002B0FD1FB7C212B08D0FB7C292B05D0AA
:1040D000FB7C282B06D1FB68212B03D1786801F0EB
:1040E00067F816E07B681B686FF480625A617B6A30
:1040F00043F004037B62FB7E102B02D0FB7E402B3F
:1041000007D17B681B681A687B681B6842F40072E1
:104110001A603B6ADB0A03F00103002B0ED0FB6937
:104120001B0A03F00103002B08D07B6A43F008034D
:104130007B627B681B686FF400625A617B6A002BAC
:1041400008D07B681A6C7B6A1A437B681A647868AB
:1041500001F0A2F800BF2837BD4680BD80B483B00F
:1041600000AF786000BF0C37BD465DF8047B704738
:1041700080B483B000AF786000BF0C37BD465DF8F7
:10418000047B704780B483B000AF786000BF0C3709
:10419000BD465DF8047B704780B483B000AF7860A3
:1041A0000B46FB7013463B8000BF0C37BD465DF8E5
:1041B000047B704780B483B000AF786000BF0C37D9
:1041C000BD465DF8047B704780B483B000AF786073
:1041D00000BF0C37BD465DF8047B704780B483B0E8
:1041E00000AF786000BF0C37BD465DF8047B7047B8
:1041F00080B584B000AF78607B6893F83D30FB7386
:104200007B6893F83E30BB737B68DB6ABB607B687E
:104210001B8D002B50D1FB7B212B4DD1BB68082B74
:104220001DD0BB68202B1AD0BB6813F5803F16D079
:104230007B681B685A687B681B6822F4E0625A60DE
:104240007B6811221A637B68002283F83E207B681A
:10425000202283F83D207868FEF708FA60E07B684A
:104260001B685A687B681B6822F4E0625A607B68AE
:104270001B681A687B681B6842F400721A607B68CE
:1042800000221A637B68202283F83D207B6893F824
:104290003E30DBB2402B07D17B68002283F83E2002
:1042A0007868FFF791FF3BE07B68002283F83E20AF
:1042B0007868FEF7DBF933E0FB7B212B05D0BB7B75
:1042C000402B2DD1FB7B222B2AD17B685B8D9BB2AF
:1042D000002B08D17B681B685A687B681B6822F436
:1042E00080625A601CE07B6893F83E30DBB2402B62
:1042F00003D1786800F08EF812E07B685B6A1A7868
:104300007B681B681A617B685B6A5A1C7B685A620F
:104310007B685B8D9BB2013B9AB27B685A85FFE755
:1043200000BF1037BD4680BD80B584B000AF786057
:104330007B68DB6AFB607B6893F83D30DBB2212B46
:1043400064D17B685B8D9BB2002B12D07B685B6A6B
:104350001A787B681B681A617B685B6A5A1C7B68E9
:104360005A627B685B8D9BB2013B9AB27B685A852F
:104370004CE0FB68082B1DD0FB68202B1AD0FB6893
:1043800013F5803F16D07B681B685A687B681B68F2
:1043900022F4E0625A607B6811221A637B68002273
:1043A00083F83E207B68202283F83D207868FEF762
:1043B0005DF92BE07B681B685A687B681B6822F4F8
:1043C000E0625A607B681B681A687B681B6842F46D
:1043D00000721A607B6800221A637B68202283F8CF
:1043E0003D207B6893F83E30DBB2402B07D17B68E1
:1043F000002283F83E207868FFF7E6FE06E07B683F
:10440000002283F83E207868FEF730F900BF1037AD
:10441000BD4680BD80B584B000AF78607B6893F8FE
:104420003D30FB737B681B6D002B1DD17B68DB6C03
:10443000012B0BD17B689B6CDAB27B681B681A611D
:104440007B681B6D9A1C7B681A6577E07B689B6CA8
:104450009BB21B12DAB27B681B681A617B681B6D0A
:104460005A1C7B681A6569E07B681B6D012B0BD1B8
:104470007B689B6CDAB27B681B681A617B681B6D7A
:104480005A1C7B681A6559E07B681B6D022B52D160
:10449000FB7B222B0DD17B681B681A687B681B682D
:1044A00042F480721A607B681B6D5A1C7B681A6527
:1044B00044E07B685B8D9BB2002B15D0FB7B212BEE
:1044C00012D17B685B6A1A787B681B681A617B680B
:1044D0005B6A5A1C7B685A627B685B8D9BB2013BAE
:1044E0009AB27B685A8529E07B685B8D9BB2002B72
:1044F00024D1FB7B212B21D17B681B685A687B6808
:104500001B6822F4E0625A607B681B681A687B684B
:104510001B6842F400721A607B6800221A637B6891
:10452000202283F83D207B68002283F83E207868B3
:10453000FFF74AFE02E07868FEF7F6FD00BF10378D
:10454000BD4680BD80B584B000AF78607B6893F8CD
:104550003D30DBB2222B40F0B9807B68DB6AFB6028
:104560007B685B8D9BB2BB60BB68032B21D97B68EA
:104570001B681A697B685B6AD2B21A707B685B6AD7
:104580005A1C7B685A627B685B8D9BB2013B9AB276
:104590007B685A857B685B8D9BB2032B40F09680CD
:1045A0007B681B685A687B681B6822F480625A60CB
:1045B0008CE07B68DB6A022B7FD0BB68012B02D0CA
:1045C000BB68002B79D1786801F070FC0346002BA2
:1045D0004CD17B681B681A687B681B6822F4806278
:1045E0001A607B681B685A687B681B6822F4E0626B
:1045F0005A607B681B681A697B685B6AD2B21A7062
:104600007B685B6A5A1C7B685A627B685B8D9BB2D5
:10461000013B9AB27B685A857B68202283F83D2053
:104620007B6893F83E30DBB2402B0AD17B680022D6
:1046300083F83E207B6800221A637868FDF7C0FF8C
:1046400044E07B68002283F83E20FB68082B02D000
:10465000FB68202B03D17B6800221A6302E07B6891
:1046600012221A637868FFF779FD2FE07B681B68D8
:104670005A687B681B6822F4E0625A607B681B689A
:104680001A697B685B6AD2B21A707B685B6A5A1CD3
:104690007B685A627B685B8D9BB2013B9AB27B68F8
:1046A0005A857B68202283F83D207B68002283F8AE
:1046B0003E207868FDF758FB08E07B681B685A6865
:1046C0007B681B6822F480625A60FFE700BF1037E6
:1046D000BD4680BD80B584B000AF78607B68DB6A82
:1046E000FB607B685B8D9BB2042B1BD17B681B68D6
:1046F0005A687B681B6822F480625A607B681B687A
:104700001A697B685B6AD2B21A707B685B6A5A1C52
:104710007B685A627B685B8D9BB2013B9AB27B6877
:104720005A85C8E07B685B8D9BB2032B29D17B68DF
:104730001B685A687B681B6822F480625A60FB68B9
:10474000042B0AD0FB68022B07D07B681B681A6811
:104750007B681B6822F480621A607B681B681A6998
:104760007B685B6AD2B21A707B685B6A5A1C7B6892
:104770005A627B685B8D9BB2013B9AB27B685A851B
:1047800099E07B685B8D9BB2022B40F08180FB68D7
:10479000012B02D0FB68102B08D17B681B681A68BC
:1047A0007B681B6822F480621A6019E0FB68042BA6
:1047B00002D0FB68022B08D17B681B681A687B68F3
:1047C0001B6842F480621A600AE0FB68102B07D075
:1047D0007B681B681A687B681B6842F400721A6069
:1047E0007B681B681A697B685B6AD2B21A707B6847
:1047F0005B6A5A1C7B685A627B685B8D9BB2013B8B
:104800009AB27B685A857B681B681A697B685B6A09
:10481000D2B21A707B685B6A5A1C7B685A627B68EA
:104820005B8D9BB2013B9AB27B685A857B681B68A3
:104830005A687B681B6822F440725A607B682022A9
:1048400083F83D207B6893F83E30DBB2402B0AD1E1
:104850007B68002283F83E207B6800221A63786818
:10486000FDF7AEFE27E07B68002283F83E20FB6860
:10487000082B02D0FB68202B03D17B6800221A632F
:1048800002E07B6812221A637868FFF767FC12E087
:104890007B681B681A697B685B6AD2B21A707B6896
:1048A0005B6A5A1C7B685A627B685B8D9BB2013BDA
:1048B0009AB27B685A8500BF1037BD4680BD80B470
:1048C00083B000AF78607B6893F83E30DBB2402B5A
:1048D00017D17B681B6D002B09D17B685B6CDBB249
:1048E0001A467B681B6802F0FE021A6167E07B686B
:1048F0005B6CDBB243F00103DAB27B681B681A61C0
:104900005DE07B681B69B3F5804F33D17B6893F81A
:104910003D30DBB2212B09D17B685B6CDBB21A46E0
:104920007B681B6802F0FE021A6108E07B685B6C22
:10493000DBB243F00103DAB27B681B681A617B6863
:104940005B6B002B04D07B685B6BDB6B002B08D1AF
:104950007B689B6B002B32D07B689B6BDB6B002BE7
:104960002DD07B681B685A687B681B6842F4006224
:104970005A6024E07B681B6D002B0ED17B685B6C5A
:104980009BB2DB11DBB203F00603DBB263F00F0373
:10499000DAB27B681B681A6111E07B681B6D012B22
:1049A0000DD17B685B6C9BB2DB11DBB203F00603BD
:1049B000DBB263F00E03DAB27B681B681A6100BFDA
:1049C0000C37BD465DF8047B704780B483B000AF00
:1049D00078607B685B6CDAB27B681B681A617B6805
:1049E0005B6B002B04D07B685B6BDB6B002B08D10F
:1049F0007B689B6B002B0CD07B689B6BDB6B002B6D
:104A000007D07B681B685A687B681B6842F40062A9
:104A10005A6000BF0C37BD465DF8047B704780B418
:104A200091B000AF78607B6893F83E3087F83F30F4
:104A30007B68DB6ABB637B681B6B7B637B6893F87B
:104A40003D30DBB2222B40F069817B681B6D002B6F
:104A50000FD197F83F30402B0BD100233B637B688D
:104A60001B685B693B637B681B689B693B633B6BB3
:104A700060E17B681B6D002B1DD17B681B69B3F562
:104A8000404F18D10023FB627B681B685B69FB62A7
:104A90007B681B689B69FB62FB6A7B681B681A6802
:104AA0007B681B6842F480721A607B681B6D5A1C1D
:104AB0007B681A653EE17B685B8D9BB2002B13D14E
:104AC0000023BB627B681B685B69BB627B681B68F9
:104AD0009B69BB62BB6A7B681B681A687B681B6842
:104AE00042F400721A6015E17B685B8D9BB2012B6A
:104AF00040F08A80BB6B13F5803F37D17B681B6821
:104B00001A687B681B6822F480621A607B681B68E5
:104B10005B6803F40063B3F5006F13D17B681B6817
:104B20001A687B681B6822F480621A6000237B622B
:104B30007B681B685B697B627B681B689B697B6227
:104B40007B6AE7E000233B627B681B685B693B6232
:104B50007B681B689B693B623B6A7B681B681A68C1
:104B60007B681B6842F400721A60D3E0BB6B082BB1
:104B70002ED0BB6B202B2BD07B6B122B02D1BB6BAF
:104B8000012B25D1BB6B042B0ED0BB6B022B0BD0A2
:104B9000BB6B102B08D07B681B681A687B681B688E
:104BA00022F480621A6007E07B681B681A687B68E1
:104BB0001B6842F480621A600023FB617B681B68FB
:104BC0005B69FB617B681B689B69FB61FB69A1E01A
:104BD0007B681B681A687B681B6822F480621A6015
:104BE0000023BB617B681B685B69BB617B681B68DA
:104BF0009B69BB61BB697B681B681A687B681B6823
:104C000042F400721A6085E07B685B8D9BB2022BD8
:104C10004DD1BB6B042B16D0BB6B022B13D0BB6BDF
:104C2000102B10D07B681B681A687B681B6822F405
:104C300080621A607B681B681A687B681B6842F494
:104C400000621A6007E07B681B681A687B681B6853
:104C500042F480621A607B681B685B6803F400633F
:104C6000B3F5006F17D1BB6B13F5803F0BD0BB6B57
:104C7000012B08D0BB6B082B05D0BB6B102B02D0CF
:104C8000BB6B202B07D17B681B685A687B681B684D
:104C900042F480525A6000237B617B681B685B6929
:104CA0007B617B681B689B697B617B6932E07B6809
:104CB0001B681A687B681B6842F480621A607B6814
:104CC0001B685B6803F40063B3F5006F17D1BB6B1F
:104CD00013F5803F0BD0BB6B012B08D0BB6B082BAF
:104CE00005D0BB6B102B02D0BB6B202B07D17B6890
:104CF0001B685A687B681B6842F480525A60002324
:104D00003B617B681B685B693B617B681B689B69D7
:104D10003B613B697B6800221A650BE00023FB6066
:104D20007B681B685B69FB607B681B689B69FB6039
:104D3000FB68FFE700BF4437BD465DF8047B704762
:104D400080B584B000AF78607B6893F83D30FB732A
:104D50007B685B8D9BB2002B2BD07B685B6A1A78DB
:104D60007B681B681A617B685B6A5A1C7B685A62A5
:104D70007B685B8D9BB2013B9AB27B685A857B68EE
:104D80005B8D9BB2002B14D1FB7B292B11D17B684F
:104D90001B685A687B681B6822F480625A607B68D3
:104DA00021221A637B68282283F83D207868FFF768
:104DB000DFF900BF1037BD4680BD80B483B000AFBF
:104DC00078607B685B8D9BB2002B11D07B685B6A3F
:104DD0001A787B681B681A617B685B6A5A1C7B685F
:104DE0005A627B685B8D9BB2013B9AB27B685A85A5
:104DF00000BF0C37BD465DF8047B704780B584B0BA
:104E000000AF78607B6893F83D30FB737B685B8D07
:104E10009BB2002B2CD07B681B681A697B685B6A8D
:104E2000D2B21A707B685B6A5A1C7B685A627B68D4
:104E30005B8D9BB2013B9AB27B685A857B685B8D28
:104E40009BB2002B14D1FB7B2A2B11D17B681B68F2
:104E50005A687B681B6822F480625A607B68222251
:104E60001A637B68282283F83D207868FFF78AF967
:104E700000BF1037BD4680BD80B483B000AF7860FE
:104E80007B685B8D9BB2002B12D07B681B681A6914
:104E90007B685B6AD2B21A707B685B6A5A1C7B685B
:104EA0005A627B685B8D9BB2013B9AB27B685A85E4
:104EB00000BF0C37BD465DF8047B704780B584B0F9
:104EC00000AF786039600023FB737B6893F83D3056
:104ED000DBB203F02803282B27D17B681B685A68B4
:104EE0007B681B6822F480625A603B689B0803F071
:104EF0000103002B01D10123FB733B68DB0903F0A5
:104F00000103002B03D17B68DB68BB8102E07B6877
:104F10009B69BB817B68002283F83C20BA89FB7BBC
:104F200019467868FFF738F90EE00023BB607B680C
:104F30001B685B69BB607B681B689B69BB60BB6867
:104F40007B68002283F83C2000BF1037BD4680BD3F
:104F500080B584B000AF78607B6893F83D30FB7318
:104F60007B681B685A687B681B6822F4E0625A60A1
:104F70000023BB607B681B685B69BB607B681B6848
:104F80001A687B681B6842F001021A60BB687B6884
:104F90001B681A687B681B6822F480621A607B6851
:104FA0001B685B6803F40063B3F5006F72D1FB7B91
:104FB000222B02D0FB7B2A2B35D17B689B6B1B6895
:104FC0005B689AB27B685A857B685B8D9BB2002BCD
:104FD00005D07B681B6C43F004027B681A647B6815
:104FE0001B685A687B681B6822F400625A607B6801
:104FF0009B6B184601F02DFF0346012B49D07B68BF
:105000009B6B694A1A657B689B6B184601F0FFFE33
:105010000346002B3DD07B689B6B1B6D7A68926BBF
:105020001046984735E07B685B6B1B685B689AB2FB
:105030007B685A857B685B8D9BB2002B05D07B68B3
:105040001B6C43F004027B681A647B681B685A6817
:105050007B681B6822F400625A607B685B6B1846B1
:1050600001F0F7FE0346012B14D07B685B6B4E4AC0
:105070001A657B685B6B184601F0C9FE0346002B7E
:1050800008D07B685B6B1B6D7A68526B1046984743
:1050900000E000BF7B685B8D9BB2002B3ED07B683D
:1050A0001B685B6903F00403042B12D17B681B6847
:1050B0001A697B685B6AD2B21A707B685B6A5A1C99
:1050C0007B685A627B685B8D9BB2013B9AB27B68BE
:1050D0005A857B681B685B6903F04003402B12D143
:1050E0007B681B681A697B685B6AD2B21A707B683E
:1050F0005B6A5A1C7B685A627B685B8D9BB2013B82
:105100009AB27B685A857B685B8D9BB2002B05D079
:105110007B681B6C43F004027B681A647B681B6C21
:10512000002B03D0786800F0B7F839E0FB7B2A2B1E
:1051300009D17B6800221A637B68282283F83D200E
:105140007868FFF71FF87B6893F83D30DBB2282BB7
:1051500011D17B68154ADA627B6800221A637B688A
:10516000202283F83D207B68002283F83E20786867
:10517000FFF720F814E07B681B6B222B02D0FB7B2F
:10518000222B0DD17B6800221A637B68202283F8D2
:105190003D207B68002283F83E207868FEF7F2FF0E
:1051A00000BF1037BD4680BD095A00080000FFFF50
:1051B00080B584B000AF78607B6893F83D30FB73B6
:1051C0007B68DB6ABB60BB68082B02D0BB68202B06
:1051D00029D1FB7B282B26D17B682E4ADA627B689B
:1051E0001B685A687B681B6822F4E0625A607B681F
:1051F0001B686FF480625A617B681B681A687B6861
:105200001B6822F480621A607B6800221A637B6844
:10521000202283F83D207B68002283F83E207868B6
:10522000FEF7C8FF31E0FB7B212B29D17B68194AAF
:10523000DA627B6821221A637B68202283F83D2092
:105240007B68002283F83E207B681B685A687B6875
:105250001B6822F4E0625A607B681B686FF480620E
:105260005A617B681B681A687B681B6822F480623D
:105270001A607868FDF758FF7868FEF779FF04E058
:105280007B681B686FF480625A6100BF1037BD46AF
:1052900080BD00BF0000FFFF80B584B000AF786024
:1052A0007B6893F83D30FB737B6893F83E30BB73AB
:1052B000BB7B102B02D0BB7B402B0AD1FB7B222B6C
:1052C00007D17B681B681A687B681B6822F4006240
:1052D0001A60FB7B03F02803282B07D17B68002290
:1052E0001A637B68282283F83D2015E07B681B68E1
:1052F0005B6803F40063B3F5006F0AD0FB7B602B9F
:1053000007D07B68202283F83D207B68002283F849
:105310003E207B6800221A637B681B685B6803F48D
:105320000063B3F5006F62D17B681B685A687B68C5
:105330001B6822F400625A607B685B6B93F835301F
:10534000DBB2012B20D07B685B6B6A4A1A657B68F5
:105350005B6B184601F05BFD0346002B00F0898073
:105360007B681B681A687B681B6822F001021A6060
:105370007B68202283F83D207B685B6B1B6D7A681D
:10538000526B1046984774E07B689B6B594A1A65CC
:105390007B689B6B184601F03AFD0346002B68D0F2
:1053A0007B681B685B6903F04003402B0BD17B6873
:1053B0001B681A697B685B6AD2B21A707B685B6A89
:1053C0005A1C7B685A627B681B681A687B681B687A
:1053D00022F001021A607B68202283F83D207B685E
:1053E0009B6B1B6D7A68926B1046984741E07B6817
:1053F00093F83D30DBB2602B25D17B68202283F807
:105400003D207B6800221A647B681B685B6903F09F
:105410004003402B0BD17B681B681A697B685B6A71
:10542000D2B21A707B685B6A5A1C7B685A627B68CE
:105430001B681A687B681B6822F001021A60786892
:10544000FEF7CCFE15E07B681B685B6903F0400348
:10545000402B0BD17B681B681A697B685B6AD2B2F0
:105460001A707B685B6A5A1C7B685A627868FCF722
:105470007BFC7B681B6CBB60BB6803F00103002BEB
:105480000ED1BB6803F00203002B09D1BB6803F007
:105490000403002B04D1BB6803F00803002B07D0E2
:1054A0007B681B685A687B681B6822F4E0625A605C
:1054B0007B6893F83D30FB737B681B6C03F004033F
:1054C000042B13D1FB7B282B10D17B680A4ADA62AC
:1054D0007B6800221A637B68202283F83D207B686A
:1054E000002283F83E207868FEF764FE00BF103784
:1054F000BD4680BD095A00080000FFFF80B588B096
:1055000002AFF8607A603B600B467B81FB68DB6A28
:105510007B617B69082B06D07B69012B03D07B69FB
:1055200013F5803F08D1FB681B681A68FB681B688D
:1055300042F480721A600BE0FB681B6B122B07D1E0
:10554000FB681B681A68FB681B6842F480721A606B
:105550003B6800937B6800224FF00111F86800F06F
:10556000FBFA0346002B0DD0FB681B681B6803F495
:105570008073B3F5807F03D1FB684FF400721A6427
:10558000032335E0FB681B69B3F5804F08D17B89A5
:10559000DBB21A46FB681B6802F0FE021A611BE0D0
:1055A0007B89DB11DBB203F00603DBB263F00F0390
:1055B000DAB2FB681B681A613B687A680E49F868C2
:1055C00000F044FB0346002B01D0012310E07B894F
:1055D000DAB2FB681B681A613B687A680749F868A9
:1055E00000F034FB0346002B01D0012300E0002330
:1055F00018461837BD4680BD0800010002000100B2
:1056000080B588B002AFF860084611461A460346D6
:105610007B810B463B811346FB80FB681B681A6845
:10562000FB681B6842F480621A60FB681B681A689A
:10563000FB681B6842F480721A607B6A00933B6AC5
:1056400000224FF00111F86800F086FA0346002BA3
:105650000DD0FB681B681B6803F48073B3F5807F73
:1056600003D1FB684FF400721A640323AAE07B891C
:10567000DBB21A46FB681B6802F0FE021A617B6A05
:105680003A6A5249F86800F0E1FA0346002B01D06B
:10569000012397E000237B61FB681B685B697B61EA
:1056A000FB681B689B697B617B697A6A396AF86869
:1056B00000F06CFB0346002B0DD0FB681B6C042B29
:1056C00007D1FB681B681A68FB681B6842F400720C
:1056D0001A60012376E0FB88012B05D13B89DAB201
:1056E000FB681B681A6121E03B891B0A9BB2DAB296
:1056F000FB681B681A617A6A396AF86800F046FB31
:105700000346002B0DD0FB681B6C042B07D1FB68F4
:105710001B681A68FB681B6842F400721A60012358
:1057200050E03B89DAB2FB681B681A617A6A396A11
:10573000F86800F02BFB0346002B0DD0FB681B6CB8
:10574000042B07D1FB681B681A68FB681B6842F4CE
:1057500000721A60012335E0FB681B681A68FB6859
:105760001B6842F480721A607B6A00933B6A0022D5
:105770004FF00111F86800F0EFF90346002B0DD04F
:10578000FB681B681B6803F48073B3F5807F03D14B
:10579000FB684FF400721A64032313E07B89DBB2C9
:1057A00043F00103DAB2FB681B681A617B6A3A6A4C
:1057B0000649F86800F04AFA0346002B01D001239D
:1057C00000E0002318461837BD4680BD02000100E6
:1057D00080B586B000AF78607B689B6B7B617B692E
:1057E00093F83D30FB747B6993F83E30BB747B6962
:1057F000DB6AFB607B691B685A687B691B6822F463
:1058000040725A607B695B6B002B03D07B695B6BDA
:105810000022DA637B699B6B002B03D07B699B6B57
:105820000022DA63FB7C03F02103212B07D0FB7CF1
:1058300003F02203222B31D1BB7C202B2ED17B699C
:105840001B685A687B691B6822F400625A607B6996
:1058500000225A85FB7C292B0AD17B6921221A63FD
:105860007B69282283F83D207869FEF781FC0CE0F3
:10587000FB7C2A2B09D17B6922221A637B692822AF
:1058800083F83D207869FEF77DFC7B691B685A68C8
:105890007B691B6842F440725A6074E07B6993F83C
:1058A0003E30DBB2002B6ED07B695B8D9BB2012B4F
:1058B00007D17B691B681A687B691B6822F48062C8
:1058C0001A607B691B685A687B691B6822F4407206
:1058D0005A60FB6813F5803F09D0FB68082B06D09F
:1058E000FB68B3F12A4F02D0FB68202B07D17B69FC
:1058F0001B681A687B691B6842F400721A607B6936
:105900001B685A687B691B6822F480525A607B6965
:105910001B685A687B691B6822F400625A607B69C5
:1059200000225A857B691B6C002B03D07869FCF739
:105930001BFA28E07B69202283F83D207B6993F8DD
:105940003E30DBB2402B0AD17B69002283F83E2037
:105950007B6900221A637869FCF732FE13E07B69E9
:10596000002283F83E20FB68082B02D0FB68202B26
:1059700003D17B6900221A6302E07B6912221A6359
:105980007869FEF7EBFB00BF1837BD4680BD80B5D8
:1059900084B000AF78607B689B6BFB60FB685B6BDF
:1059A000002B03D0FB685B6B0022DA63FB689B6B08
:1059B000002B03D0FB689B6B0022DA63786801F050
:1059C00056FA0346022B1BD0FB681B681A68FB685B
:1059D0001B6822F480621A60FB6800225A85FB680B
:1059E000202283F83D20FB68002283F83E20FB68DC
:1059F0001B6C43F01002FB681A64F868FCF7B4F9FA
:105A000000BF1037BD4680BD80B586B000AF78605E
:105A10000023FB607B689B6B7B617B6993F83D3067
:105A2000FB744B4B1B68DB084A4AA2FB03231A0A90
:105A300013469B001344DA00D31AFB60FB68002B6B
:105A400006D17B691B6C43F020027B691A640AE073
:105A5000FB68013BFB607B691B681B6803F40073F8
:105A6000B3F5007FEAD07B695B6B002B03D07B69C9
:105A70005B6B0022DA637B699B6B002B03D07B6935
:105A80009B6B0022DA637B691B681A687B691B6861
:105A900022F480621A607B6900225A857B695B6B05
:105AA000002B03D07B695B6B00221A657B699B6BC3
:105AB000002B03D07B699B6B00221A657B691B68F6
:105AC0001A687B691B6822F001021A607B6993F8EF
:105AD0003D30DBB2602B0ED17B69202283F83D2064
